{
  "_format": "hh-sol-artifact-1",
  "contractName": "ETHDaddy",
  "sourceName": "contracts/ETHDaddy.sol",
  "abi": [
    {
      "inputs": [
        {
          "internalType": "string",
          "name": "_name",
          "type": "string"
        },
        {
          "internalType": "string",
          "name": "_symbol",
          "type": "string"
        }
      ],
      "stateMutability": "nonpayable",
      "type": "constructor"
    },
    {
      "anonymous": false,
      "inputs": [
        {
          "indexed": true,
          "internalType": "address",
          "name": "owner",
          "type": "address"
        },
        {
          "indexed": true,
          "internalType": "address",
          "name": "approved",
          "type": "address"
        },
        {
          "indexed": true,
          "internalType": "uint256",
          "name": "tokenId",
          "type": "uint256"
        }
      ],
      "name": "Approval",
      "type": "event"
    },
    {
      "anonymous": false,
      "inputs": [
        {
          "indexed": true,
          "internalType": "address",
          "name": "owner",
          "type": "address"
        },
        {
          "indexed": true,
          "internalType": "address",
          "name": "operator",
          "type": "address"
        },
        {
          "indexed": false,
          "internalType": "bool",
          "name": "approved",
          "type": "bool"
        }
      ],
      "name": "ApprovalForAll",
      "type": "event"
    },
    {
      "anonymous": false,
      "inputs": [
        {
          "indexed": true,
          "internalType": "address",
          "name": "from",
          "type": "address"
        },
        {
          "indexed": true,
          "internalType": "address",
          "name": "to",
          "type": "address"
        },
        {
          "indexed": true,
          "internalType": "uint256",
          "name": "tokenId",
          "type": "uint256"
        }
      ],
      "name": "Transfer",
      "type": "event"
    },
    {
      "inputs": [
        {
          "internalType": "address",
          "name": "to",
          "type": "address"
        },
        {
          "internalType": "uint256",
          "name": "tokenId",
          "type": "uint256"
        }
      ],
      "name": "approve",
      "outputs": [],
      "stateMutability": "nonpayable",
      "type": "function"
    },
    {
      "inputs": [
        {
          "internalType": "address",
          "name": "owner",
          "type": "address"
        }
      ],
      "name": "balanceOf",
      "outputs": [
        {
          "internalType": "uint256",
          "name": "",
          "type": "uint256"
        }
      ],
      "stateMutability": "view",
      "type": "function"
    },
    {
      "inputs": [
        {
          "internalType": "uint256",
          "name": "",
          "type": "uint256"
        }
      ],
      "name": "domains",
      "outputs": [
        {
          "internalType": "string",
          "name": "name",
          "type": "string"
        },
        {
          "internalType": "uint256",
          "name": "cost",
          "type": "uint256"
        },
        {
          "internalType": "bool",
          "name": "isOwned",
          "type": "bool"
        }
      ],
      "stateMutability": "view",
      "type": "function"
    },
    {
      "inputs": [
        {
          "internalType": "uint256",
          "name": "tokenId",
          "type": "uint256"
        }
      ],
      "name": "getApproved",
      "outputs": [
        {
          "internalType": "address",
          "name": "",
          "type": "address"
        }
      ],
      "stateMutability": "view",
      "type": "function"
    },
    {
      "inputs": [],
      "name": "getBalance",
      "outputs": [
        {
          "internalType": "uint256",
          "name": "",
          "type": "uint256"
        }
      ],
      "stateMutability": "view",
      "type": "function"
    },
    {
      "inputs": [
        {
          "internalType": "uint256",
          "name": "_id",
          "type": "uint256"
        }
      ],
      "name": "getDomain",
      "outputs": [
        {
          "components": [
            {
              "internalType": "string",
              "name": "name",
              "type": "string"
            },
            {
              "internalType": "uint256",
              "name": "cost",
              "type": "uint256"
            },
            {
              "internalType": "bool",
              "name": "isOwned",
              "type": "bool"
            }
          ],
          "internalType": "struct ETHDaddy.Domain",
          "name": "",
          "type": "tuple"
        }
      ],
      "stateMutability": "view",
      "type": "function"
    },
    {
      "inputs": [
        {
          "internalType": "address",
          "name": "owner",
          "type": "address"
        },
        {
          "internalType": "address",
          "name": "operator",
          "type": "address"
        }
      ],
      "name": "isApprovedForAll",
      "outputs": [
        {
          "internalType": "bool",
          "name": "",
          "type": "bool"
        }
      ],
      "stateMutability": "view",
      "type": "function"
    },
    {
      "inputs": [
        {
          "internalType": "string",
          "name": "_name",
          "type": "string"
        },
        {
          "internalType": "uint256",
          "name": "_cost",
          "type": "uint256"
        }
      ],
      "name": "list",
      "outputs": [],
      "stateMutability": "nonpayable",
      "type": "function"
    },
    {
      "inputs": [],
      "name": "maxSupply",
      "outputs": [
        {
          "internalType": "uint256",
          "name": "",
          "type": "uint256"
        }
      ],
      "stateMutability": "view",
      "type": "function"
    },
    {
      "inputs": [
        {
          "internalType": "uint256",
          "name": "_id",
          "type": "uint256"
        }
      ],
      "name": "mint",
      "outputs": [],
      "stateMutability": "payable",
      "type": "function"
    },
    {
      "inputs": [],
      "name": "name",
      "outputs": [
        {
          "internalType": "string",
          "name": "",
          "type": "string"
        }
      ],
      "stateMutability": "view",
      "type": "function"
    },
    {
      "inputs": [],
      "name": "owner",
      "outputs": [
        {
          "internalType": "address",
          "name": "",
          "type": "address"
        }
      ],
      "stateMutability": "view",
      "type": "function"
    },
    {
      "inputs": [
        {
          "internalType": "uint256",
          "name": "tokenId",
          "type": "uint256"
        }
      ],
      "name": "ownerOf",
      "outputs": [
        {
          "internalType": "address",
          "name": "",
          "type": "address"
        }
      ],
      "stateMutability": "view",
      "type": "function"
    },
    {
      "inputs": [
        {
          "internalType": "address",
          "name": "from",
          "type": "address"
        },
        {
          "internalType": "address",
          "name": "to",
          "type": "address"
        },
        {
          "internalType": "uint256",
          "name": "tokenId",
          "type": "uint256"
        }
      ],
      "name": "safeTransferFrom",
      "outputs": [],
      "stateMutability": "nonpayable",
      "type": "function"
    },
    {
      "inputs": [
        {
          "internalType": "address",
          "name": "from",
          "type": "address"
        },
        {
          "internalType": "address",
          "name": "to",
          "type": "address"
        },
        {
          "internalType": "uint256",
          "name": "tokenId",
          "type": "uint256"
        },
        {
          "internalType": "bytes",
          "name": "data",
          "type": "bytes"
        }
      ],
      "name": "safeTransferFrom",
      "outputs": [],
      "stateMutability": "nonpayable",
      "type": "function"
    },
    {
      "inputs": [
        {
          "internalType": "address",
          "name": "operator",
          "type": "address"
        },
        {
          "internalType": "bool",
          "name": "approved",
          "type": "bool"
        }
      ],
      "name": "setApprovalForAll",
      "outputs": [],
      "stateMutability": "nonpayable",
      "type": "function"
    },
    {
      "inputs": [
        {
          "internalType": "bytes4",
          "name": "interfaceId",
          "type": "bytes4"
        }
      ],
      "name": "supportsInterface",
      "outputs": [
        {
          "internalType": "bool",
          "name": "",
          "type": "bool"
        }
      ],
      "stateMutability": "view",
      "type": "function"
    },
    {
      "inputs": [],
      "name": "symbol",
      "outputs": [
        {
          "internalType": "string",
          "name": "",
          "type": "string"
        }
      ],
      "stateMutability": "view",
      "type": "function"
    },
    {
      "inputs": [
        {
          "internalType": "uint256",
          "name": "tokenId",
          "type": "uint256"
        }
      ],
      "name": "tokenURI",
      "outputs": [
        {
          "internalType": "string",
          "name": "",
          "type": "string"
        }
      ],
      "stateMutability": "view",
      "type": "function"
    },
    {
      "inputs": [],
      "name": "totalSupply",
      "outputs": [
        {
          "internalType": "uint256",
          "name": "",
          "type": "uint256"
        }
      ],
      "stateMutability": "view",
      "type": "function"
    },
    {
      "inputs": [
        {
          "internalType": "address",
          "name": "from",
          "type": "address"
        },
        {
          "internalType": "address",
          "name": "to",
          "type": "address"
        },
        {
          "internalType": "uint256",
          "name": "tokenId",
          "type": "uint256"
        }
      ],
      "name": "transferFrom",
      "outputs": [],
      "stateMutability": "nonpayable",
      "type": "function"
    },
    {
      "inputs": [],
      "name": "withdraw",
      "outputs": [],
      "stateMutability": "nonpayable",
      "type": "function"
    }
  ],
  "bytecode": "0x60806040523480156200001157600080fd5b50604051620038a3380380620038a383398181016040528101906200003791906200023b565b818181600090816200004a91906200050b565b5080600190816200005c91906200050b565b50505033600860006101000a81548173ffffffffffffffffffffffffffffffffffffffff021916908373ffffffffffffffffffffffffffffffffffffffff1602179055505050620005f2565b6000604051905090565b600080fd5b600080fd5b600080fd5b600080fd5b6000601f19601f8301169050919050565b7f4e487b7100000000000000000000000000000000000000000000000000000000600052604160045260246000fd5b6200011182620000c6565b810181811067ffffffffffffffff82111715620001335762000132620000d7565b5b80604052505050565b600062000148620000a8565b905062000156828262000106565b919050565b600067ffffffffffffffff821115620001795762000178620000d7565b5b6200018482620000c6565b9050602081019050919050565b60005b83811015620001b157808201518184015260208101905062000194565b60008484015250505050565b6000620001d4620001ce846200015b565b6200013c565b905082815260208101848484011115620001f357620001f2620000c1565b5b6200020084828562000191565b509392505050565b600082601f83011262000220576200021f620000bc565b5b815162000232848260208601620001bd565b91505092915050565b60008060408385031215620002555762000254620000b2565b5b600083015167ffffffffffffffff811115620002765762000275620000b7565b5b620002848582860162000208565b925050602083015167ffffffffffffffff811115620002a857620002a7620000b7565b5b620002b68582860162000208565b9150509250929050565b600081519050919050565b7f4e487b7100000000000000000000000000000000000000000000000000000000600052602260045260246000fd5b600060028204905060018216806200031357607f821691505b602082108103620003295762000328620002cb565b5b50919050565b60008190508160005260206000209050919050565b60006020601f8301049050919050565b600082821b905092915050565b600060088302620003937fffffffffffffffffffffffffffffffffffffffffffffffffffffffffffffffff8262000354565b6200039f868362000354565b95508019841693508086168417925050509392505050565b6000819050919050565b6000819050919050565b6000620003ec620003e6620003e084620003b7565b620003c1565b620003b7565b9050919050565b6000819050919050565b6200040883620003cb565b620004206200041782620003f3565b84845462000361565b825550505050565b600090565b6200043762000428565b62000444818484620003fd565b505050565b5b818110156200046c57620004606000826200042d565b6001810190506200044a565b5050565b601f821115620004bb5762000485816200032f565b620004908462000344565b81016020851015620004a0578190505b620004b8620004af8562000344565b83018262000449565b50505b505050565b600082821c905092915050565b6000620004e060001984600802620004c0565b1980831691505092915050565b6000620004fb8383620004cd565b9150826002028217905092915050565b6200051682620002c0565b67ffffffffffffffff811115620005325762000531620000d7565b5b6200053e8254620002fa565b6200054b82828562000470565b600060209050601f8311600181146200058357600084156200056e578287015190505b6200057a8582620004ed565b865550620005ea565b601f19841662000593866200032f565b60005b82811015620005bd5784890151825560018201915060208501945060208101905062000596565b86831015620005dd5784890151620005d9601f891682620004cd565b8355505b6001600288020188555050505b505050505050565b6132a180620006026000396000f3fe6080604052600436106101355760003560e01c80636352211e116100ab578063a0712d681161006f578063a0712d681461043c578063a22cb46514610458578063b88d4fde14610481578063c87b56dd146104aa578063d5abeb01146104e7578063e985e9c51461051257610135565b80636352211e1461032d57806366cf8fab1461036a57806370a08231146103a95780638da5cb5b146103e657806395d89b411461041157610135565b806318160ddd116100fd57806318160ddd146102335780631a7a98e21461025e57806323b872dd1461029b5780633ccfd60b146102c457806342842e0e146102db5780634a878dfa1461030457610135565b806301ffc9a71461013a57806306fdde0314610177578063081812fc146101a2578063095ea7b3146101df57806312065fe014610208575b600080fd5b34801561014657600080fd5b50610161600480360381019061015c9190611fe5565b61054f565b60405161016e919061202d565b60405180910390f35b34801561018357600080fd5b5061018c610631565b60405161019991906120d8565b60405180910390f35b3480156101ae57600080fd5b506101c960048036038101906101c49190612130565b6106c3565b6040516101d6919061219e565b60405180910390f35b3480156101eb57600080fd5b50610206600480360381019061020191906121e5565b610709565b005b34801561021457600080fd5b5061021d610820565b60405161022a9190612234565b60405180910390f35b34801561023f57600080fd5b50610248610828565b6040516102559190612234565b60405180910390f35b34801561026a57600080fd5b5061028560048036038101906102809190612130565b61082e565b6040516102929190612307565b60405180910390f35b3480156102a757600080fd5b506102c260048036038101906102bd9190612329565b610912565b005b3480156102d057600080fd5b506102d9610972565b005b3480156102e757600080fd5b5061030260048036038101906102fd9190612329565b610a67565b005b34801561031057600080fd5b5061032b600480360381019061032691906124b1565b610a87565b005b34801561033957600080fd5b50610354600480360381019061034f9190612130565b610b73565b604051610361919061219e565b60405180910390f35b34801561037657600080fd5b50610391600480360381019061038c9190612130565b610bf9565b6040516103a09392919061250d565b60405180910390f35b3480156103b557600080fd5b506103d060048036038101906103cb919061254b565b610cb8565b6040516103dd9190612234565b60405180910390f35b3480156103f257600080fd5b506103fb610d6f565b604051610408919061219e565b60405180910390f35b34801561041d57600080fd5b50610426610d95565b60405161043391906120d8565b60405180910390f35b61045660048036038101906104519190612130565b610e27565b005b34801561046457600080fd5b5061047f600480360381019061047a91906125a4565b610eee565b005b34801561048d57600080fd5b506104a860048036038101906104a39190612685565b610f04565b005b3480156104b657600080fd5b506104d160048036038101906104cc9190612130565b610f66565b6040516104de91906120d8565b60405180910390f35b3480156104f357600080fd5b506104fc610fce565b6040516105099190612234565b60405180910390f35b34801561051e57600080fd5b5061053960048036038101906105349190612708565b610fd4565b604051610546919061202d565b60405180910390f35b60007f80ac58cd000000000000000000000000000000000000000000000000000000007bffffffffffffffffffffffffffffffffffffffffffffffffffffffff1916827bffffffffffffffffffffffffffffffffffffffffffffffffffffffff1916148061061a57507f5b5e139f000000000000000000000000000000000000000000000000000000007bffffffffffffffffffffffffffffffffffffffffffffffffffffffff1916827bffffffffffffffffffffffffffffffffffffffffffffffffffffffff1916145b8061062a575061062982611068565b5b9050919050565b60606000805461064090612777565b80601f016020809104026020016040519081016040528092919081815260200182805461066c90612777565b80156106b95780601f1061068e576101008083540402835291602001916106b9565b820191906000526020600020905b81548152906001019060200180831161069c57829003601f168201915b5050505050905090565b60006106ce826110d2565b6004600083815260200190815260200160002060009054906101000a900473ffffffffffffffffffffffffffffffffffffffff169050919050565b600061071482610b73565b90508073ffffffffffffffffffffffffffffffffffffffff168373ffffffffffffffffffffffffffffffffffffffff1603610784576040517f08c379a000000000000000000000000000000000000000000000000000000000815260040161077b9061281a565b60405180910390fd5b8073ffffffffffffffffffffffffffffffffffffffff166107a361111d565b73ffffffffffffffffffffffffffffffffffffffff1614806107d257506107d1816107cc61111d565b610fd4565b5b610811576040517f08c379a0000000000000000000000000000000000000000000000000000000008152600401610808906128ac565b60405180910390fd5b61081b8383611125565b505050565b600047905090565b60075481565b610836611f56565b6009600083815260200190815260200160002060405180606001604052908160008201805461086490612777565b80601f016020809104026020016040519081016040528092919081815260200182805461089090612777565b80156108dd5780601f106108b2576101008083540402835291602001916108dd565b820191906000526020600020905b8154815290600101906020018083116108c057829003601f168201915b50505050508152602001600182015481526020016002820160009054906101000a900460ff1615151515815250509050919050565b61092361091d61111d565b826111de565b610962576040517f08c379a00000000000000000000000000000000000000000000000000000000081526004016109599061293e565b60405180910390fd5b61096d838383611273565b505050565b600860009054906101000a900473ffffffffffffffffffffffffffffffffffffffff1673ffffffffffffffffffffffffffffffffffffffff163373ffffffffffffffffffffffffffffffffffffffff16146109cc57600080fd5b6000600860009054906101000a900473ffffffffffffffffffffffffffffffffffffffff1673ffffffffffffffffffffffffffffffffffffffff1647604051610a149061298f565b60006040518083038185875af1925050503d8060008114610a51576040519150601f19603f3d011682016040523d82523d6000602084013e610a56565b606091505b5050905080610a6457600080fd5b50565b610a8283838360405180602001604052806000815250610f04565b505050565b600860009054906101000a900473ffffffffffffffffffffffffffffffffffffffff1673ffffffffffffffffffffffffffffffffffffffff163373ffffffffffffffffffffffffffffffffffffffff1614610ae157600080fd5b60066000815480929190610af4906129d3565b91905055506040518060600160405280838152602001828152602001600015158152506009600060065481526020019081526020016000206000820151816000019081610b419190612bc7565b506020820151816001015560408201518160020160006101000a81548160ff0219169083151502179055509050505050565b600080610b7f8361156c565b9050600073ffffffffffffffffffffffffffffffffffffffff168173ffffffffffffffffffffffffffffffffffffffff1603610bf0576040517f08c379a0000000000000000000000000000000000000000000000000000000008152600401610be790612ce5565b60405180910390fd5b80915050919050565b6009602052806000526040600020600091509050806000018054610c1c90612777565b80601f0160208091040260200160405190810160405280929190818152602001828054610c4890612777565b8015610c955780601f10610c6a57610100808354040283529160200191610c95565b820191906000526020600020905b815481529060010190602001808311610c7857829003601f168201915b5050505050908060010154908060020160009054906101000a900460ff16905083565b60008073ffffffffffffffffffffffffffffffffffffffff168273ffffffffffffffffffffffffffffffffffffffff1603610d28576040517f08c379a0000000000000000000000000000000000000000000000000000000008152600401610d1f90612d77565b60405180910390fd5b600360008373ffffffffffffffffffffffffffffffffffffffff1673ffffffffffffffffffffffffffffffffffffffff168152602001908152602001600020549050919050565b600860009054906101000a900473ffffffffffffffffffffffffffffffffffffffff1681565b606060018054610da490612777565b80601f0160208091040260200160405190810160405280929190818152602001828054610dd090612777565b8015610e1d5780601f10610df257610100808354040283529160200191610e1d565b820191906000526020600020905b815481529060010190602001808311610e0057829003601f168201915b5050505050905090565b60008111610e3457600080fd5b600654811115610e4357600080fd5b600015156009600083815260200190815260200160002060020160009054906101000a900460ff16151514610e7757600080fd5b6009600082815260200190815260200160002060010154341015610e9a57600080fd5b60016009600083815260200190815260200160002060020160006101000a81548160ff02191690831515021790555060076000815480929190610edc906129d3565b9190505550610eeb33826115a9565b50565b610f00610ef961111d565b83836115c7565b5050565b610f15610f0f61111d565b836111de565b610f54576040517f08c379a0000000000000000000000000000000000000000000000000000000008152600401610f4b9061293e565b60405180910390fd5b610f6084848484611733565b50505050565b6060610f71826110d2565b6000610f7b61178f565b90506000815111610f9b5760405180602001604052806000815250610fc6565b80610fa5846117a6565b604051602001610fb6929190612dd3565b6040516020818303038152906040525b915050919050565b60065481565b6000600560008473ffffffffffffffffffffffffffffffffffffffff1673ffffffffffffffffffffffffffffffffffffffff16815260200190815260200160002060008373ffffffffffffffffffffffffffffffffffffffff1673ffffffffffffffffffffffffffffffffffffffff16815260200190815260200160002060009054906101000a900460ff16905092915050565b60007f01ffc9a7000000000000000000000000000000000000000000000000000000007bffffffffffffffffffffffffffffffffffffffffffffffffffffffff1916827bffffffffffffffffffffffffffffffffffffffffffffffffffffffff1916149050919050565b6110db81611874565b61111a576040517f08c379a000000000000000000000000000000000000000000000000000000000815260040161111190612ce5565b60405180910390fd5b50565b600033905090565b816004600083815260200190815260200160002060006101000a81548173ffffffffffffffffffffffffffffffffffffffff021916908373ffffffffffffffffffffffffffffffffffffffff160217905550808273ffffffffffffffffffffffffffffffffffffffff1661119883610b73565b73ffffffffffffffffffffffffffffffffffffffff167f8c5be1e5ebec7d5bd14f71427d1e84f3dd0314c0f7b2291e5b200ac8c7c3b92560405160405180910390a45050565b6000806111ea83610b73565b90508073ffffffffffffffffffffffffffffffffffffffff168473ffffffffffffffffffffffffffffffffffffffff16148061122c575061122b8185610fd4565b5b8061126a57508373ffffffffffffffffffffffffffffffffffffffff16611252846106c3565b73ffffffffffffffffffffffffffffffffffffffff16145b91505092915050565b8273ffffffffffffffffffffffffffffffffffffffff1661129382610b73565b73ffffffffffffffffffffffffffffffffffffffff16146112e9576040517f08c379a00000000000000000000000000000000000000000000000000000000081526004016112e090612e69565b60405180910390fd5b600073ffffffffffffffffffffffffffffffffffffffff168273ffffffffffffffffffffffffffffffffffffffff1603611358576040517f08c379a000000000000000000000000000000000000000000000000000000000815260040161134f90612efb565b60405180910390fd5b61136583838360016118b5565b8273ffffffffffffffffffffffffffffffffffffffff1661138582610b73565b73ffffffffffffffffffffffffffffffffffffffff16146113db576040517f08c379a00000000000000000000000000000000000000000000000000000000081526004016113d290612e69565b60405180910390fd5b6004600082815260200190815260200160002060006101000a81549073ffffffffffffffffffffffffffffffffffffffff02191690556001600360008573ffffffffffffffffffffffffffffffffffffffff1673ffffffffffffffffffffffffffffffffffffffff168152602001908152602001600020600082825403925050819055506001600360008473ffffffffffffffffffffffffffffffffffffffff1673ffffffffffffffffffffffffffffffffffffffff16815260200190815260200160002060008282540192505081905550816002600083815260200190815260200160002060006101000a81548173ffffffffffffffffffffffffffffffffffffffff021916908373ffffffffffffffffffffffffffffffffffffffff160217905550808273ffffffffffffffffffffffffffffffffffffffff168473ffffffffffffffffffffffffffffffffffffffff167fddf252ad1be2c89b69c2b068fc378daa952ba7f163c4a11628f55a4df523b3ef60405160405180910390a461156783838360016119db565b505050565b60006002600083815260200190815260200160002060009054906101000a900473ffffffffffffffffffffffffffffffffffffffff169050919050565b6115c38282604051806020016040528060008152506119e1565b5050565b8173ffffffffffffffffffffffffffffffffffffffff168373ffffffffffffffffffffffffffffffffffffffff1603611635576040517f08c379a000000000000000000000000000000000000000000000000000000000815260040161162c90612f67565b60405180910390fd5b80600560008573ffffffffffffffffffffffffffffffffffffffff1673ffffffffffffffffffffffffffffffffffffffff16815260200190815260200160002060008473ffffffffffffffffffffffffffffffffffffffff1673ffffffffffffffffffffffffffffffffffffffff16815260200190815260200160002060006101000a81548160ff0219169083151502179055508173ffffffffffffffffffffffffffffffffffffffff168373ffffffffffffffffffffffffffffffffffffffff167f17307eab39ab6107e8899845ad3d59bd9653f200f220920489ca2b5937696c3183604051611726919061202d565b60405180910390a3505050565b61173e848484611273565b61174a84848484611a3c565b611789576040517f08c379a000000000000000000000000000000000000000000000000000000000815260040161178090612ff9565b60405180910390fd5b50505050565b606060405180602001604052806000815250905090565b6060600060016117b584611bc3565b01905060008167ffffffffffffffff8111156117d4576117d3612386565b5b6040519080825280601f01601f1916602001820160405280156118065781602001600182028036833780820191505090505b509050600082602001820190505b600115611869578080600190039150507f3031323334353637383961626364656600000000000000000000000000000000600a86061a8153600a858161185d5761185c613019565b5b04945060008503611814575b819350505050919050565b60008073ffffffffffffffffffffffffffffffffffffffff166118968361156c565b73ffffffffffffffffffffffffffffffffffffffff1614159050919050565b60018111156119d557600073ffffffffffffffffffffffffffffffffffffffff168473ffffffffffffffffffffffffffffffffffffffff16146119495780600360008673ffffffffffffffffffffffffffffffffffffffff1673ffffffffffffffffffffffffffffffffffffffff16815260200190815260200160002060008282546119419190613048565b925050819055505b600073ffffffffffffffffffffffffffffffffffffffff168373ffffffffffffffffffffffffffffffffffffffff16146119d45780600360008573ffffffffffffffffffffffffffffffffffffffff1673ffffffffffffffffffffffffffffffffffffffff16815260200190815260200160002060008282546119cc919061307c565b925050819055505b5b50505050565b50505050565b6119eb8383611d16565b6119f86000848484611a3c565b611a37576040517f08c379a0000000000000000000000000000000000000000000000000000000008152600401611a2e90612ff9565b60405180910390fd5b505050565b6000611a5d8473ffffffffffffffffffffffffffffffffffffffff16611f33565b15611bb6578373ffffffffffffffffffffffffffffffffffffffff1663150b7a02611a8661111d565b8786866040518563ffffffff1660e01b8152600401611aa89493929190613105565b6020604051808303816000875af1925050508015611ae457506040513d601f19601f82011682018060405250810190611ae19190613166565b60015b611b66573d8060008114611b14576040519150601f19603f3d011682016040523d82523d6000602084013e611b19565b606091505b506000815103611b5e576040517f08c379a0000000000000000000000000000000000000000000000000000000008152600401611b5590612ff9565b60405180910390fd5b805181602001fd5b63150b7a0260e01b7bffffffffffffffffffffffffffffffffffffffffffffffffffffffff1916817bffffffffffffffffffffffffffffffffffffffffffffffffffffffff191614915050611bbb565b600190505b949350505050565b600080600090507a184f03e93ff9f4daa797ed6e38ed64bf6a1f0100000000000000008310611c21577a184f03e93ff9f4daa797ed6e38ed64bf6a1f0100000000000000008381611c1757611c16613019565b5b0492506040810190505b6d04ee2d6d415b85acef81000000008310611c5e576d04ee2d6d415b85acef81000000008381611c5457611c53613019565b5b0492506020810190505b662386f26fc100008310611c8d57662386f26fc100008381611c8357611c82613019565b5b0492506010810190505b6305f5e1008310611cb6576305f5e1008381611cac57611cab613019565b5b0492506008810190505b6127108310611cdb576127108381611cd157611cd0613019565b5b0492506004810190505b60648310611cfe5760648381611cf457611cf3613019565b5b0492506002810190505b600a8310611d0d576001810190505b80915050919050565b600073ffffffffffffffffffffffffffffffffffffffff168273ffffffffffffffffffffffffffffffffffffffff1603611d85576040517f08c379a0000000000000000000000000000000000000000000000000000000008152600401611d7c906131df565b60405180910390fd5b611d8e81611874565b15611dce576040517f08c379a0000000000000000000000000000000000000000000000000000000008152600401611dc59061324b565b60405180910390fd5b611ddc6000838360016118b5565b611de581611874565b15611e25576040517f08c379a0000000000000000000000000000000000000000000000000000000008152600401611e1c9061324b565b60405180910390fd5b6001600360008473ffffffffffffffffffffffffffffffffffffffff1673ffffffffffffffffffffffffffffffffffffffff16815260200190815260200160002060008282540192505081905550816002600083815260200190815260200160002060006101000a81548173ffffffffffffffffffffffffffffffffffffffff021916908373ffffffffffffffffffffffffffffffffffffffff160217905550808273ffffffffffffffffffffffffffffffffffffffff16600073ffffffffffffffffffffffffffffffffffffffff167fddf252ad1be2c89b69c2b068fc378daa952ba7f163c4a11628f55a4df523b3ef60405160405180910390a4611f2f6000838360016119db565b5050565b6000808273ffffffffffffffffffffffffffffffffffffffff163b119050919050565b604051806060016040528060608152602001600081526020016000151581525090565b6000604051905090565b600080fd5b600080fd5b60007fffffffff0000000000000000000000000000000000000000000000000000000082169050919050565b611fc281611f8d565b8114611fcd57600080fd5b50565b600081359050611fdf81611fb9565b92915050565b600060208284031215611ffb57611ffa611f83565b5b600061200984828501611fd0565b91505092915050565b60008115159050919050565b61202781612012565b82525050565b6000602082019050612042600083018461201e565b92915050565b600081519050919050565b600082825260208201905092915050565b60005b83811015612082578082015181840152602081019050612067565b60008484015250505050565b6000601f19601f8301169050919050565b60006120aa82612048565b6120b48185612053565b93506120c4818560208601612064565b6120cd8161208e565b840191505092915050565b600060208201905081810360008301526120f2818461209f565b905092915050565b6000819050919050565b61210d816120fa565b811461211857600080fd5b50565b60008135905061212a81612104565b92915050565b60006020828403121561214657612145611f83565b5b60006121548482850161211b565b91505092915050565b600073ffffffffffffffffffffffffffffffffffffffff82169050919050565b60006121888261215d565b9050919050565b6121988161217d565b82525050565b60006020820190506121b3600083018461218f565b92915050565b6121c28161217d565b81146121cd57600080fd5b50565b6000813590506121df816121b9565b92915050565b600080604083850312156121fc576121fb611f83565b5b600061220a858286016121d0565b925050602061221b8582860161211b565b9150509250929050565b61222e816120fa565b82525050565b60006020820190506122496000830184612225565b92915050565b600082825260208201905092915050565b600061226b82612048565b612275818561224f565b9350612285818560208601612064565b61228e8161208e565b840191505092915050565b6122a2816120fa565b82525050565b6122b181612012565b82525050565b600060608301600083015184820360008601526122d48282612260565b91505060208301516122e96020860182612299565b5060408301516122fc60408601826122a8565b508091505092915050565b6000602082019050818103600083015261232181846122b7565b905092915050565b60008060006060848603121561234257612341611f83565b5b6000612350868287016121d0565b9350506020612361868287016121d0565b92505060406123728682870161211b565b9150509250925092565b600080fd5b600080fd5b7f4e487b7100000000000000000000000000000000000000000000000000000000600052604160045260246000fd5b6123be8261208e565b810181811067ffffffffffffffff821117156123dd576123dc612386565b5b80604052505050565b60006123f0611f79565b90506123fc82826123b5565b919050565b600067ffffffffffffffff82111561241c5761241b612386565b5b6124258261208e565b9050602081019050919050565b82818337600083830152505050565b600061245461244f84612401565b6123e6565b9050828152602081018484840111156124705761246f612381565b5b61247b848285612432565b509392505050565b600082601f8301126124985761249761237c565b5b81356124a8848260208601612441565b91505092915050565b600080604083850312156124c8576124c7611f83565b5b600083013567ffffffffffffffff8111156124e6576124e5611f88565b5b6124f285828601612483565b92505060206125038582860161211b565b9150509250929050565b60006060820190508181036000830152612527818661209f565b90506125366020830185612225565b612543604083018461201e565b949350505050565b60006020828403121561256157612560611f83565b5b600061256f848285016121d0565b91505092915050565b61258181612012565b811461258c57600080fd5b50565b60008135905061259e81612578565b92915050565b600080604083850312156125bb576125ba611f83565b5b60006125c9858286016121d0565b92505060206125da8582860161258f565b9150509250929050565b600067ffffffffffffffff8211156125ff576125fe612386565b5b6126088261208e565b9050602081019050919050565b6000612628612623846125e4565b6123e6565b90508281526020810184848401111561264457612643612381565b5b61264f848285612432565b509392505050565b600082601f83011261266c5761266b61237c565b5b813561267c848260208601612615565b91505092915050565b6000806000806080858703121561269f5761269e611f83565b5b60006126ad878288016121d0565b94505060206126be878288016121d0565b93505060406126cf8782880161211b565b925050606085013567ffffffffffffffff8111156126f0576126ef611f88565b5b6126fc87828801612657565b91505092959194509250565b6000806040838503121561271f5761271e611f83565b5b600061272d858286016121d0565b925050602061273e858286016121d0565b9150509250929050565b7f4e487b7100000000000000000000000000000000000000000000000000000000600052602260045260246000fd5b6000600282049050600182168061278f57607f821691505b6020821081036127a2576127a1612748565b5b50919050565b7f4552433732313a20617070726f76616c20746f2063757272656e74206f776e6560008201527f7200000000000000000000000000000000000000000000000000000000000000602082015250565b6000612804602183612053565b915061280f826127a8565b604082019050919050565b60006020820190508181036000830152612833816127f7565b9050919050565b7f4552433732313a20617070726f76652063616c6c6572206973206e6f7420746f60008201527f6b656e206f776e6572206f7220617070726f76656420666f7220616c6c000000602082015250565b6000612896603d83612053565b91506128a18261283a565b604082019050919050565b600060208201905081810360008301526128c581612889565b9050919050565b7f4552433732313a2063616c6c6572206973206e6f7420746f6b656e206f776e6560008201527f72206f7220617070726f76656400000000000000000000000000000000000000602082015250565b6000612928602d83612053565b9150612933826128cc565b604082019050919050565b600060208201905081810360008301526129578161291b565b9050919050565b600081905092915050565b50565b600061297960008361295e565b915061298482612969565b600082019050919050565b600061299a8261296c565b9150819050919050565b7f4e487b7100000000000000000000000000000000000000000000000000000000600052601160045260246000fd5b60006129de826120fa565b91507fffffffffffffffffffffffffffffffffffffffffffffffffffffffffffffffff8203612a1057612a0f6129a4565b5b600182019050919050565b60008190508160005260206000209050919050565b60006020601f8301049050919050565b600082821b905092915050565b600060088302612a7d7fffffffffffffffffffffffffffffffffffffffffffffffffffffffffffffffff82612a40565b612a878683612a40565b95508019841693508086168417925050509392505050565b6000819050919050565b6000612ac4612abf612aba846120fa565b612a9f565b6120fa565b9050919050565b6000819050919050565b612ade83612aa9565b612af2612aea82612acb565b848454612a4d565b825550505050565b600090565b612b07612afa565b612b12818484612ad5565b505050565b5b81811015612b3657612b2b600082612aff565b600181019050612b18565b5050565b601f821115612b7b57612b4c81612a1b565b612b5584612a30565b81016020851015612b64578190505b612b78612b7085612a30565b830182612b17565b50505b505050565b600082821c905092915050565b6000612b9e60001984600802612b80565b1980831691505092915050565b6000612bb78383612b8d565b9150826002028217905092915050565b612bd082612048565b67ffffffffffffffff811115612be957612be8612386565b5b612bf38254612777565b612bfe828285612b3a565b600060209050601f831160018114612c315760008415612c1f578287015190505b612c298582612bab565b865550612c91565b601f198416612c3f86612a1b565b60005b82811015612c6757848901518255600182019150602085019450602081019050612c42565b86831015612c845784890151612c80601f891682612b8d565b8355505b6001600288020188555050505b505050505050565b7f4552433732313a20696e76616c696420746f6b656e2049440000000000000000600082015250565b6000612ccf601883612053565b9150612cda82612c99565b602082019050919050565b60006020820190508181036000830152612cfe81612cc2565b9050919050565b7f4552433732313a2061646472657373207a65726f206973206e6f74206120766160008201527f6c6964206f776e65720000000000000000000000000000000000000000000000602082015250565b6000612d61602983612053565b9150612d6c82612d05565b604082019050919050565b60006020820190508181036000830152612d9081612d54565b9050919050565b600081905092915050565b6000612dad82612048565b612db78185612d97565b9350612dc7818560208601612064565b80840191505092915050565b6000612ddf8285612da2565b9150612deb8284612da2565b91508190509392505050565b7f4552433732313a207472616e736665722066726f6d20696e636f72726563742060008201527f6f776e6572000000000000000000000000000000000000000000000000000000602082015250565b6000612e53602583612053565b9150612e5e82612df7565b604082019050919050565b60006020820190508181036000830152612e8281612e46565b9050919050565b7f4552433732313a207472616e7366657220746f20746865207a65726f2061646460008201527f7265737300000000000000000000000000000000000000000000000000000000602082015250565b6000612ee5602483612053565b9150612ef082612e89565b604082019050919050565b60006020820190508181036000830152612f1481612ed8565b9050919050565b7f4552433732313a20617070726f766520746f2063616c6c657200000000000000600082015250565b6000612f51601983612053565b9150612f5c82612f1b565b602082019050919050565b60006020820190508181036000830152612f8081612f44565b9050919050565b7f4552433732313a207472616e7366657220746f206e6f6e20455243373231526560008201527f63656976657220696d706c656d656e7465720000000000000000000000000000602082015250565b6000612fe3603283612053565b9150612fee82612f87565b604082019050919050565b6000602082019050818103600083015261301281612fd6565b9050919050565b7f4e487b7100000000000000000000000000000000000000000000000000000000600052601260045260246000fd5b6000613053826120fa565b915061305e836120fa565b9250828203905081811115613076576130756129a4565b5b92915050565b6000613087826120fa565b9150613092836120fa565b92508282019050808211156130aa576130a96129a4565b5b92915050565b600081519050919050565b600082825260208201905092915050565b60006130d7826130b0565b6130e181856130bb565b93506130f1818560208601612064565b6130fa8161208e565b840191505092915050565b600060808201905061311a600083018761218f565b613127602083018661218f565b6131346040830185612225565b818103606083015261314681846130cc565b905095945050505050565b60008151905061316081611fb9565b92915050565b60006020828403121561317c5761317b611f83565b5b600061318a84828501613151565b91505092915050565b7f4552433732313a206d696e7420746f20746865207a65726f2061646472657373600082015250565b60006131c9602083612053565b91506131d482613193565b602082019050919050565b600060208201905081810360008301526131f8816131bc565b9050919050565b7f4552433732313a20746f6b656e20616c7265616479206d696e74656400000000600082015250565b6000613235601c83612053565b9150613240826131ff565b602082019050919050565b6000602082019050818103600083015261326481613228565b905091905056fea2646970667358221220f1959ccf2cdf69ef3790515646e239f3188b9f7641e5d14662e9f376449adf9b64736f6c63430008110033",
  "linkReferences": {},
  "deployedLinkReferences": {}
}